:10000000F07F0010D906000031070000390700001A
:10001000410700004907000051070000F254FFEFBC
:100020000000000000000000000000005907000070
:10003000610700000000000069070000750700006C
:100040008107000081070000810700008107000090
:100050008107000081070000810700008107000080
:100060008107000081070000810700008107000070
:100070008107000081070000810700008107000060
:100080008107000081070000810700008107000050
:100090008107000081070000810700008107000040
:1000A0008107000081070000810700008107000030
:1000B0008107000081070000810700008107000020
:1000C0008107000010B5054C237833B9044B13B1F8
:1000D0000448AFF300800123237010BD5C080010BA
:1000E00000000000501D0000084B10B51BB108496E
:1000F0000848AFF300800848036803B910BD074BF8
:10010000002BFBD0BDE81040184700BF00000000E6
:1001100060080010501D000054080010000000008E
:10012000154B002B08BF134B9D46A3F5803A0021C9
:100130008B460F461348144A121A01F063F80F4B0E
:10014000002B00D098470E4B002B00D09847002082
:10015000002104000D000D48002802D00C4801F0D9
:1001600067F901F027F82000290000F035FC01F0C4
:1001700011F800BF000008000000000000000000AF
:10018000000000005C080010B808001031140000E6
:100190003D14000080B400AF514BD3F888301B0EE3
:1001A00003F00303032B63D14D4BD3F80C3103F061
:1001B0000303032B00F2908001A252F823F000BF4A
:1001C000D1010000070200003D020000D101000043
:1001D000434BD3F88830C3F30E030133414A02FB8B
:1001E00003F23F4BD3F888301B0CDBB20133B2FB78
:1001F000F3F23B4BD3F80431DBB20133B2FBF3F340
:10020000394A136068E0364BD3F88830C3F30E03E5
:100210000133364A02FB03F2314BD3F888301B0C12
:10022000DBB20133B2FBF3F22D4BD3F80431DBB276
:100230000133B2FBF3F32C4A13604DE0284BD3F8A3
:100240008830C3F30E0301331A04254BD3F88830EA
:100250001B0CDBB20133B2FBF3F2214BD3F80431B8
:10026000DBB20133B2FBF3F31F4A136000BF33E08C
:100270001B4BD3F80C3103F00303032B2CD801A242
:1002800052F823F095020000AB020000C10200000A
:1002900095020000124BD3F80431DBB20133144A4B
:1002A000B2FBF3F3104A136016E00D4BD3F80431A0
:1002B000DBB201330F4AB2FBF3F30B4A13600BE0DE
:1002C000074BD3F80431DBB201334FF40042B2FBE9
:1002D000F3F3054A136000BF00BFBD4680BC704702
:1002E00000C00F4000127A000400001000366E01BA
:1002F00000093D00001BB70080B483B000AF4FF091
:1003000040737B604FF440733B60504B2022C3F836
:10031000A0214E4BD3F8A03103F02003002B07D0CF
:1003200000BF4A4BD3F8A03103F04003002BF8D0B4
:10033000464B0322C3F80421444B0022C3F8A821F2
:10034000424B0022C3F8AC21404B0122C3F80C21E0
:100350003E4B3F4AC3F884203C4BAA22C3F88C2072
:100360003A4B5522C3F88C20384B0122C3F8802029
:10037000364BAA22C3F88C20344B5522C3F88C206C
:1003800000BF324BD3F8883003F08063002BF8D0E5
:100390002E4B0322C3F880202C4BAA22C3F88C20BA
:1003A0002A4B5522C3F88C2000BF284BD3F8882055
:1003B0007B681A407B689A42F7D1244B2322C3F80A
:1003C000A420224BAA22C3F8AC20204B5522C3F80C
:1003D000AC201E4B0122C3F8A0201C4BAA22C3F85C
:1003E000AC201A4B5522C3F8AC2000BF174BD3F8F2
:1003F000A83003F48063002BF8D0144B0322C3F819
:10040000A020124BAA22C3F8AC20104B5522C3F8EF
:10041000AC2000BF0D4BD3F8A8203B681A403B68C6
:100420009A42F7D1094B0B4AC3F8C420074B00226C
:10043000C3F8C821054B43F23A021A60064B00226A
:100440009A6000BF0C37BD4680BC704700C00F40AB
:1004500063000500DE87280400ED00E080B582B06F
:1004600000AF786004220249012000F01BF9FEE78A
:10047000F81C000080B483B000AF78604FF0FF3309
:1004800018460C37BD4680BC704700BF80B485B0AD
:1004900000AFF860B9607A60044B0C221A604FF02C
:1004A000FF3318461437BD4680BC7047B4080010AF
:1004B00080B400AF044B0B221A604FF0FF33184694
:1004C000BD4680BC704700BFB408001080B483B044
:1004D00000AF786039603B684FF400525A600023E7
:1004E00018460C37BD4680BC704700BF80B400AFD3
:1004F00001231846BD4680BC704700BF80B483B05E
:1005000000AF78607B680033022B01D8012303E041
:10051000044B09221A60002318460C37BD4680BCE4
:10052000704700BFB408001080B483B000AF78609B
:100530003960054B16221A604FF0FF3318460C370E
:10054000BD4680BC704700BFB408001080B483B0C3
:1005500000AF78603960054B1F221A604FF0FF33FF
:1005600018460C37BD4680BC704700BFB408001069
:1005700080B485B000AFF860B9607A600023184697
:100580001437BD4680BC704790B585B000AF786029
:10059000154B1B68002B02D1134B144A1A60124BE7
:1005A0001B68FB60EFF308831C462346BB600E4BC1
:1005B0001A687B681A44BB689A4209D919220C4907
:1005C000022000F06FF80B4B0C221A60002306E0AB
:1005D000054B1A687B681344034A1360FB6818468E
:1005E0001437BD4690BD00BF78080010B808001051
:1005F000001D0000B408001080B487B000AFF860A0
:10060000B9607A6000237B61FB68002B05D0064B44
:1006100009221A604FF0FF3301E000BF7B691846E2
:100620001C37BD4680BC7047B408001080B483B04E
:1006300000AF786039603B684FF400525A60002385
:1006400018460C37BD4680BC704700BF80B483B0ED
:1006500000AF78604FF0FF3318460C37BD4680BCC2
:10066000704700BF80B483B000AF7860044B0222B3
:100670001A604FF0FF3318460C37BD4680BC7047F8
:10068000B408001080B483B000AF7860044B0A2235
:100690001A604FF0FF3318460C37BD4680BC7047D8
:1006A000B408001080B485B000AFF860B9607A601B
:1006B000FB68013B012B05D9064B09221A604FF05C
:1006C000FF3301E000BF7B6818461437BD4680BC8D
:1006D000704700BFB408001080B582B000AF0F4B68
:1006E0007B600F4B3B6007E03B681A1D3A607A68FD
:1006F000111D796012681A603B680A4A9342F3D36D
:1007000009480A494FF000028842B8BF40F8042B5C
:10071000FADBFFF7F1FD00F05FF9FEE75C1D00007A
:10072000000000104C0800105C080010B808001011
:1007300080B400AFFEE700BF80B400AFFEE700BFAB
:1007400080B400AFFEE700BF80B400AFFEE700BF9B
:1007500080B400AFFEE700BF80B400AFFEE700BF8B
:1007600080B400AFFEE700BF80B400AF00BFBD465D
:1007700080BC704780B400AF00BFBD4680BC7047EE
:1007800080B400AFFEE700BF80B500AF01214FF499
:10079000004000F0B3FC00BF80BD00BF80B582B058
:1007A00000AF78607B68002B05D14FF480010020FA
:1007B00000F0BAFA04E04FF48001002000F0AAFA39
:1007C00000BF0837BD4680BD80B582B000AF7860FD
:1007D0007B68002B05D14FF08061032000F0A4FA64
:1007E00004E04FF08061032000F094FA00BF083766
:1007F000BD4680BD80B582B000AF78607B68002BBD
:1008000005D14FF00071032000F08EFA04E04FF0A4
:100810000071032000F07EFA00BF0837BD4680BD9E
:1008200080B582B000AF78607B68002B05D14FF4B3
:100830008051022000F078FA04E04FF48051022049
:1008400000F068FA00BF0837BD4680BD80B582B0B1
:1008500000AF78607B68002B05D14FF48021012028
:1008600000F062FA04E04FF48021012000F052FA17
:1008700000BF0837BD4680BD80B582B000AF78604C
:100880007B68002B05D14FF40051022000F04CFA98
:1008900004E04FF40051022000F03CFA00BF08379A
:1008A000BD4680BD80B582B000AF78607B68002B0C
:1008B00005D14FF40061022000F036FA04E04FF455
:1008C0000061022000F026FA00BF0837BD4680BD57
:1008D00080B582B000AF00233B7016237B700023ED
:1008E000BB700023FB7000233B713B46184600F0B1
:1008F000B1F903233B701A237B703B46184600F086
:10090000A9F903233B7019237B703B46184600F07E
:10091000A1F902233B700B237B703B46184600F085
:1009200099F902233B700C237B703B46184600F07C
:1009300091F901233B7012237B703B46184600F06F
:1009400089F902233B700D237B703B46184600F06B
:1009500081F901224FF48001002000F0C9F9012241
:100960004FF08061032000F0C3F901224FF00071C5
:10097000032000F0BDF901224FF48051022000F065
:10098000B7F901224FF40061022000F0B1F9012211
:100990004FF48021012000F0ABF901224FF4005107
:1009A000022000F0A5F90120FFF7F8FE0120FFF773
:1009B0000BFF0120FFF71EFF0120FFF731FF012091
:1009C000FFF744FF0120FFF757FF0120FFF76AFF01
:1009D00000BF0837BD4680BD80B582B000AFFFF7CD
:1009E000D3FEFFF775FF0020FFF7D8FE00237B60E2
:1009F00002E07B6801337B607B68864A9342F8DDC6
:100A00000120FFF7CBFE00237B6002E07B6801330F
:100A10007B607B687F4A9342F8DD0020FFF7BEFED3
:100A20000020FFF7D1FE00237B6002E07B680133EA
:100A30007B607B68774A9342F8DD0120FFF7C4FEB4
:100A40000120FFF7ABFE00237B6002E07B680133EF
:100A50007B607B686F4A9342F8DD0020FFF7B4FEAD
:100A60000020FFF7C7FE00237B6002E07B680133B4
:100A70007B607B68674A9342F8DD0120FFF7BAFE8E
:100A80000120FFF7A1FE00237B6002E07B680133B9
:100A90007B607B685F4A9342F8DD0020FFF794FE9D
:100AA00000237B6002E07B6801337B607B68594AEE
:100AB0009342F8DD0120FFF787FE00237B6002E010
:100AC0007B6801337B607B68524A9342F8DD0020EB
:100AD000FFF790FE00237B6002E07B6801337B60C0
:100AE0007B684C4A9342F8DD0120FFF783FE002328
:100AF0007B6002E07B6801337B607B68454A934200
:100B0000F8DD0020FFF776FE0020FFF747FE002308
:100B10007B6002E07B6801337B607B683E4A9342E6
:100B2000F8DD0120FFF766FE0120FFF737FE002306
:100B30007B6002E07B6801337B607B68364A9342CE
:100B4000F8DD0020FFF76CFE00237B6002E07B688D
:100B500001337B607B68304A9342F8DD0120FFF768
:100B60005FFE00237B6002E07B6801337B607B6873
:100B7000294A9342F8DD0020FFF768FE00237B60DE
:100B800002E07B6801337B607B68234A9342F8DD97
:100B90000120FFF75BFE00237B6002E07B680133EE
:100BA0007B607B681C4A9342F8DD0020FFF764FEFF
:100BB00000237B6002E07B6801337B607B68164A20
:100BC0009342F8DD0120FFF757FE00237B6002E02F
:100BD0007B6801337B607B680F4A9342F8DD00201D
:100BE000FFF760FE00237B6002E07B6801337B60DF
:100BF0007B68094A9342F8DD0120FFF753FE00238A
:100C00007B6002E07B6801337B607B68024A934231
:100C1000F8DDE8E63F420F00BFC62D00012806D0F0
:100C200020B9064A936A23F0080393627047034A87
:100C3000936A43F008039362704700BF00C002400C
:100C40000029034B14BF05220A22DA67704700BF50
:100C500000C0024070B4427803780F2A4FEA430381
:100C600088BF01334FEA830303F1804303F5303338
:100C700088BF103A81781C6852000325954024EA09
:100C8000050401FA02F222431A60437802780F2B1E
:100C90004FEA4202144E84BF0132103BC1785B0020
:100CA00056F8224003259D4024EA050401FA03F387
:100CB000234346F8223004790178012C45780AD084
:100CC0000A48012250F82130AA4023EA020340F8E2
:100CD000213070BC7047054BAC4053F821201443C1
:100CE00043F8214070BC704740C0024068C00240D9
:100CF000042808D8064B53F8203023B122B91A68CB
:100D000022EA0101196070471A681143196070479F
:100D10001C1D0000042804D8024B53F8203003B1F6
:100D2000996170471C1D0000042804D8024B53F839
:100D3000203003B1D96170471C1D0000042805D87C
:100D4000034B53F8200010B14069704700207047F2
:100D50001C1D000028B1022802D172B1012A09D05D
:100D6000FEE722B1012AFBD1054B59617047044BC4
:100D700019617047024B59637047014B1963704703
:100D80008080024028B1022802D1BAB1012A0FD0D6
:100D9000FEE73AB1012AFBD10B4B9868C84000F03E
:100DA00001007047084B5868C84000F001007047C8
:100DB000054B986AC84000F001007047024B586A22
:100DC000C84000F0010070478080024010B1022846
:100DD00003D0FEE7024BD9607047014BD9627047E0
:100DE00080800240042808D8064B53F8203023B1F5
:100DF00022B91A6822EA0101196070471A68114382
:100E0000196070471C1D0000042804D8024B53F8D9
:100E1000203003B1996170471C1D0000042804D8DC
:100E2000024B53F8203003B1D96170471C1D0000FC
:100E3000042805D8034B53F8200010B140697047CF
:100E4000002070471C1D0000FFF784BFFFF79ABF0A
:100E500010B1022803D0FEE7024BD9607047014B66
:100E6000D962704780800240042808D8064B53F8A6
:100E7000203023B122B91A6922EA010119617047B1
:100E80001A691143196170471C1D000004280BD812
:100E900010B4104C54F8200028B133B169B1438824
:100EA0009BB21A43428010BC704761B9038810BCE2
:100EB0009BB223EA02020280F6E7038810BC9BB2D1
:100EC0001A430280F0E7438810BC9BB223EA020277
:100ED0004280E9E71C1D000004280BD810B4104C18
:100EE00054F8200028B133B169B1438A9BB21A4348
:100EF000428210BC704761B9038A10BC9BB223EADE
:100F000002020282F6E7038A10BC9BB21A430282F5
:100F1000F0E7438A10BC9BB223EA02024282E9E76F
:100F20001C1D0000042805D8044B53F820300BB1D9
:100F300009B91A8370475A83704700BF1C1D00000F
:100F4000042805D8044B53F820300BB109B99A8313
:100F50007047DA83704700BF1C1D0000042807D8C3
:100F6000064B53F8200020B121B9808A80B2704727
:100F700000207047C08A80B2704700BF1C1D00006F
:100F800004280BD810B40A4C54F8200028B133B10F
:100F9000032902D8435C1A43425410BC704703290A
:100FA000FBD8435C23EA0202425410BCF6E700BFC0
:100FB0001C1D000004280CD810B40B4C54F8200061
:100FC00030B13BB1032903D801440B7C1A430A74A6
:100FD00010BC70470329FBD801440B7C23EA0202B2
:100FE0000A7410BCF5E700BF1C1D0000042807D8D8
:100FF000044B53F820301BB103299CBFC9180A7653
:10100000704700BF1C1D0000042807D8044B53F88C
:1010100020301BB103299CBFC9180A77704700BF55
:101020001C1D0000042809D8064B53F820303BB1A2
:10103000032903D81944087DC0B2704700207047C7
:10104000184670471C1D00001F2810B4124B10D802
:10105000D3F8A8410322824024EA0202C3F8A8215F
:10106000D3F8A82101FA00F01043C3F8A80110BC7E
:101070007047D3F8AC4120380322824024EA0202B0
:10108000C3F8AC21D3F8AC2101FA00F01043C3F847
:10109000AC0110BC704700BF00C00F40064B1F28BA
:1010A00092BFD3F8A831D3F8AC31203823FA00F03E
:1010B00000F00300704700BF00C00F400D4B1F2819
:1010C0001A680D4B8ABF2038D3F8A831D3F8AC3159
:1010D00023FA00F000F00300022804D0032805D012
:1010E000012818BF0420B2FBF0F070470820B2FBC3
:1010F000F0F070470400001000C00F4001290AD032
:1011000041B9094A094BD2F8C4100B4023EA000345
:10111000C2F8C43070470449044AD1F8C4300240D0
:101120001343C1F8C430704700C00F40DEF7EFEF43
:10113000024B0022C3F8C02030BF704700C00F40F0
:101140000449054B042000220861C3F8C02030BFC9
:10115000704700BF00ED00E000C00F400449054BA0
:10116000042001220861C3F8C02030BF704700BFCF
:1011700000ED00E000C00F400449054B04200322AD
:101180000861C3F8C02030BF704700BF00ED00E029
:1011900000C00F4008B50021044600F0DDF8044B04
:1011A0001868C36B03B198472046FFF757F900BF93
:1011B000341D000070B50F4E0F4D761BB61018BFD2
:1011C000002405D0013455F8043B9847A642F9D1D4
:1011D0000A4E0B4D00F0B0FD761BB61018BF002470
:1011E00006D0013455F8043B9847A642F9D170BDAA
:1011F00070BD00BF00000000000000000000000003
:101200000000000070B4840746D0541E002A41D06C
:10121000CDB2034602E0621EE4B3144603F8015B5C
:101220009A07F8D1032C2ED9CDB245EA05250F2C0B
:1012300045EA054519D9264603F11002103E0F2E46
:1012400042F8105C42F80C5C42F8085C42F8045C1E
:1012500002F11002F2D8A4F1100222F00F0204F001
:101260000F041032032C13440DD91E462246043AB3
:10127000032A46F8045BFAD8221F22F00302043244
:10128000134404F003042CB1C9B21C4403F8011B3D
:10129000A342FBD170BC704714460346C2E700BFAF
:1012A00038B50C460968054609B1FFF7F9FF214634
:1012B0002846BDE8384000F023B900BF204B1B682A
:1012C00083423CD0C36C70B505468BB1002699595A
:1012D00039B10C68284600F013F92146002CF8D1EA
:1012E000EB6C0436802EF2D11946284600F008F93E
:1012F000296C11B1284600F003F9D5F8481151B115
:1013000005F5A676B14206D00C68284600F0F8F83C
:10131000A6422146F8D1696D11B1284600F0F0F8D7
:10132000AB6B03B970BDEB6B28469847D5F8E0125C
:101330000029F7D02846BDE87040FFF7B1BF7047DD
:1013400038040010024B13B1024800F071B8704726
:10135000000000003D1400002DE9F04F0E46324B16
:1013600085B01B680190029303F5A4730393029B5D
:10137000D3F848713FB3DDF80CA04FF00109D34614
:101380007C68651E0ED4013407EB84044FF000081E
:10139000E6B1D4F800319E4218D0013D6B1CA4F197
:1013A0000404F5D1214B73B17B68002B36D13B6827
:1013B000002B34D03846CBF80030AFF30080DBF898
:1013C0000070002FDCD105B0BDE8F08F7B6822688B
:1013D000013BAB420CBF7D60C4F80080002ADCD02A
:1013E000D7F8881109FA05F30B42D7F804A00FD0FB
:1013F000D7F88C110B420DD1D4F88010019890478A
:101400007B685345B3D1DBF80030BB42C5D0AEE7B3
:101410009047F5E7D4F880009047F1E73B68BB467A
:101420001F46002FACD1CEE7341D000000000000A5
:10143000002301461A46184600F00CBC38B5074D8B
:10144000074C2C1BA41005D0013C55F8043D9847CF
:10145000002CF9D1BDE8384000F074BC0000000059
:1014600000000000F8B50C46224F064600F0DCFBF9
:10147000BB685D6825F00305291B01F6EF7121F4B7
:101480007F6121F00F01A1F58054B4F5805F07DB87
:101490000021304600F0CCFBBB682B44984204D0BE
:1014A000304600F0C3FB0020F8BD6142304600F03A
:1014B000BFFB01300DD0104BBA6819682D1B45F0E9
:1014C00001053046091B5560196000F0AFFB012093
:1014D000F8BD0021304600F0ABFBBA68831A0F2B31
:1014E000DEDD064C0449246843F00103001B536011
:1014F0000860D5E73C0400108C0800104808001074
:10150000002945D02DE9F0410D46804600F08CFBC6
:1015100055F8047C6A49A5F1080427F00103E21894
:101520008E685068B24220F0030062D0FE0750601F
:101530000BD455F8087C01F1080EE41BA5683B4468
:1015400075456FD0E768EF60BD6015186D68ED07F1
:1015500042D543F001026260E350B3F5007F18D238
:10156000DB0848689D100122013351F8337002FAFC
:1015700005F501EBC3022843083AE260A760486022
:1015800041F83340FC604046BDE8F04100F04EBBFE
:1015900070475A0A042A53D89A0902F139077F0082
:1015A00002F1380501EB870051F8272008389042F6
:1015B00043494DD0516821F003018B4202D2926819
:1015C0009042F7D1D068E060A2608460D460404669
:1015D000BDE8F04100F02ABB95683A4F0344BD4294
:1015E0003FD0D06843F00102E86085606260E3505C
:1015F000B3E7FF07034407D455F8085C641BE268AF
:10160000A0682B44C26090602F4A43F0010012682A
:10161000606093428C60B6D32C4B40461968FFF74C
:1016200021FFB0E711184968C90744D49168034401
:10163000D26843F00100CA6091606060E350A2E7A5
:10164000142A17D802F15C077F0002F15B05A9E7B5
:10165000AA104B68012505FA02F213434B600246BB
:10166000B1E743F001024C610C61E560A560626086
:10167000E35088E7542A06D81A0B02F16F077F005F
:1016800002F16E058EE7B2F5AA7F06D8DA0B02F1F9
:1016900078077F0002F1770584E740F254508242D8
:1016A00006D89A0C02F17D077F0002F17C0579E7EC
:1016B000FE277E2576E743F001026260E35062E791
:1016C0003C04001044040010440800108808001076
:1016D0002DE9F04F01F10B05162D83B0064640F2BF
:1016E000A08035F0070500F1C080A94200F2BD805E
:1016F00000F09AFAB5F5FC7FC0F090826B0A00F01A
:10170000BB80042B00F27781A80900F1390E4FEA63
:101710004E013830BE4F07EB81014C680839A142B9
:1017200007D1AEE0002A80F2AE80E468A14200F06A
:10173000A880636823F003035A1B0F2AF2DDB44923
:101740003C6901F1080E744500F0A881636823F03C
:1017500003035A1B0F2A00F38E81002AC1F814E0FC
:10176000C1F810E080F29380B3F5007F80F05C81D7
:10177000DB084A684FEAA3094FF0010C013351F826
:1017800033800CFA09F901EBC30C49EA0202ACF10F
:10179000080CC4F80CC0C4F808804A6041F8334013
:1017A000C8F80C40831001249C4094427CD8144219
:1017B00006D120F003006400144200F10400FAD0C6
:1017C00007EBC009CC468046DCF80C108C4507D1ED
:1017D00066E1002A80F27481C9688C4500F060815E
:1017E0004B6823F003035A1B0F2AF2DD0C46CB682B
:1017F00054F808CF45F00108C1F804800D4442F0C8
:101800000101CCF80C303046C3F808C07D613D6161
:10181000C5F80CE0C5F808E06960AA5000F006FAC7
:101820001FE0102921D800F0FFF91025062302201F
:10183000774F07EB83035C68A3F10802944200F042
:1018400038816368E16823F0030323445A68A5687C
:1018500042F00102E96030468D605A6000F0E6F91E
:101860000834204603B0BDE8F08F002420460C2346
:10187000336003B0BDE8F08F80214FF0400E3F2071
:1018800048E770465BE723445A68E168DFE7234492
:101890005A68304642F001025A60083400F0C6F936
:1018A000204603B0BDE8F08FBC68636823F00308EE
:1018B000A84504D3C5EB08030F2B00F38C80554BD0
:1018C000DFF860911A68D9F800302A44013304EB3C
:1018D000080A00F0608102F580520F3222F47F6224
:1018E00022F00F0211463046019200F0A1F9B0F14A
:1018F000FF3F8346019A00F05881824500F2FC8048
:10190000454BDA4519681144196000F05381D9F844
:101910000000DFF810E101301BBFCAEB0B0A514495
:10192000CEF800B019601BF0070100F01781C1F17B
:101930000800C1F58051834408315A44C2F30B02B8
:10194000C2EB010949463046019300F071F9431C8E
:10195000019B00F03F81CBEB00024A4442F00102C0
:101960001968BC424944C7F808B01960CBF8042094
:10197000DFF8A49016D0B8F10F0F40F2FD80626836
:10198000A8F10C0323F0070302F00102E0184FF066
:10199000050E1A430F2B6260C0F804E0C0F808E09F
:1019A00000F21C811D4BBC681A68914288BF196007
:1019B0001B4B1A689142626888BF196022F00302CB
:1019C0009542A2EB050301D80F2B04DC304600F052
:1019D0002DF9002445E745F0010243F001032544B9
:1019E00062603046BD6008346B6000F01FF920462D
:1019F00003B0BDE8F08F142B71D9542B00F2A480F2
:101A0000280B00F16F0E4FEA4E016E3082E600BFE8
:101A10003C040010880800108C0800108408001096
:101A200080080010480800105A0A042A5ED9142AB7
:101A300000F2B38002F15C0149005B3207EB810CDC
:101A400057F82110ACF1080C8C45DFF8D88100F074
:101A500088804A6822F00302934202D289688C454A
:101A6000F7D1D1F80CC07A68C4F80CC0A160CCF8EA
:101A70000840CC6096E645F0010742F0010325449A
:101A8000676030464D610D61C5F80CE0C5F808E0AF
:101A90006B60AA50083400F0C9F8E2E64A6881E6B3
:101AA00008F1010818F0030F0CF1080C7FF48CAE5C
:101AB00030E0DC68A34208BF02303FF440AEC0E62D
:101AC0000C460B445A68C96854F8085F42F001029A
:101AD0005A603046E9608D6000F0A8F8C1E603F175
:101AE0005C0E03F15B004FEA4E0113E69A0902F126
:101AF000390149003832A1E7BC424A4B3FF400AFFC
:101B00009C68626822F003025AE759F8083999453F
:101B100040F0828010F0030F00F1FF30F5D17B68B8
:101B200023EA04037B6064009C423FF6BDAE002CB8
:101B30003FF4BAAE1C4240467FF442AE64001C4201
:101B400000F10400FAD03BE6B3F5AA7F18D8E80B01
:101B500000F1780E4FEA4E017730DBE54FF480510B
:101B6000EBE60121D8F80430921001FA02F21A4390
:101B7000C8F80420614677E70123CBF8043025E755
:101B800040F25452934220D8A80C00F17D0E4FEA47
:101B90004E017C30BEE51032A4E6542A26D81A0B3A
:101BA00002F16F0149006E3248E7BC68626822F0BA
:101BB000030205E7CAF30B0000287FF4A8AE4244F5
:101BC000BB6842F001025A60ECE6FE214FF07F0E46
:101BD0007E209FE501224FF00009C1E604F10801D3
:101BE0003046FFF78DFCD9F80010DBE6B2F5AA7F8E
:101BF00005D8DA0B02F17801490077321EE740F28E
:101C000054518A4205D89A0C02F17D0149007C3278
:101C100014E7FE217E2211E77B6884E7E808431C75
:101C20005B0005E63C040010704700BF704700BF32
:101C300038B5074C0023054608462360FEF7A4FC90
:101C4000431C00D038BD2368002BFBD02B6038BD6F
:101C5000B40800102DE9F047254C06462568884653
:101C6000D5F8484192469946C4B360681F2817DCEE
:101C7000411C76B104EB8003C3F888A0D4F88851E6
:101C8000012282401543022EC4F88851C3F80891FE
:101C90001ED0831C6160002044F82380BDE8F087DB
:101CA000144B03B34FF4C870AFF300800446D0B1B7
:101CB000D5F84831002784E888003846C5F84841FF
:101CC0000121C4F88871C4F88C71002EE1D0D1E7ED
:101CD000D4F88C311A43C4F88C21DAE705F5A674E0
:101CE000C5F84841C1E74FF0FF30BDE8F08700BFBD
:101CF000341D0000000000006578697400000000D9
:101D00004865617020616E6420737461636B206349
:101D10006F6C6C6973696F6E0A00000000C0092067
:101D200020C0092040C0092060C0092080C00920CF
:081D3000430000001000001048
:0C1D3800F8B500BFF8BC08BC9E46704720
:0C1D4400F8B500BFF8BC08BC9E46704714
:041D5000000000008F
:081D5400CCE3FF7F0100000059
:101D5C000000000000E1F5057C0800100000000008
:101D6C0000000000FC02001064030010CC03001003
:101D7C000000000000000000000000000000000057
:101D8C000000000000000000000000000000000047
:101D9C0000000000301D00000000000000000000EA
:101DAC000000000000000000000000000000000027
:101DBC000000000000000000000000000000000017
:101DCC000000000000000000000000000000000007
:101DDC0000000000000000000000000000000000F7
:101DEC0000000000000000000000000000000000E7
:101DFC0000000000000000000000000000000000D7
:101E0C0000000000000000000100000000000000C5
:101E1C000E33CDAB34126DE6ECDE05000B0000008A
:101E2C0000000000000000000000000000000000A6
:101E3C000000000000000000000000000000000096
:101E4C000000000000000000000000000000000086
:101E5C000000000000000000000000000000000076
:10218C000000000000000000100000100000000023
:10219C00000000003C0400103C040010440400103B
:1021AC00440400104C0400104C04001054040010A3
:1021BC00540400105C0400105C0400106404001053
:1021CC00640400106C0400106C0400107404001003
:1021DC00740400107C0400107C04001084040010B3
:1021EC00840400108C0400108C0400109404001063
:1021FC00940400109C0400109C040010A404001013
:10220C00A4040010AC040010AC040010B4040010C2
:10221C00B4040010BC040010BC040010C404001072
:10222C00C4040010CC040010CC040010D404001022
:10223C00D4040010DC040010DC040010E4040010D2
:10224C00E4040010EC040010EC040010F404001082
:10225C00F4040010FC040010FC0400100405001031
:10226C00040500100C0500100C05001014050010DE
:10227C00140500101C0500101C050010240500108E
:10228C00240500102C0500102C050010340500103E
:10229C00340500103C0500103C05001044050010EE
:1022AC00440500104C0500104C050010540500109E
:1022BC00540500105C0500105C050010640500104E
:1022CC00640500106C0500106C05001074050010FE
:1022DC00740500107C0500107C05001084050010AE
:1022EC00840500108C0500108C050010940500105E
:1022FC00940500109C0500109C050010A40500100E
:10230C00A4050010AC050010AC050010B4050010BD
:10231C00B4050010BC050010BC050010C40500106D
:10232C00C4050010CC050010CC050010D40500101D
:10233C00D4050010DC050010DC050010E4050010CD
:10234C00E4050010EC050010EC050010F40500107D
:10235C00F4050010FC050010FC050010040600102C
:10236C00040600100C0600100C06001014060010D9
:10237C00140600101C0600101C0600102406001089
:10238C00240600102C0600102C0600103406001039
:10239C00340600103C0600103C06001044060010E9
:1023AC00440600104C0600104C0600105406001099
:1023BC00540600105C0600105C0600106406001049
:1023CC00640600106C0600106C06001074060010F9
:1023DC00740600107C0600107C06001084060010A9
:1023EC00840600108C0600108C0600109406001059
:1023FC00940600109C0600109C060010A406001009
:10240C00A4060010AC060010AC060010B4060010B8
:10241C00B4060010BC060010BC060010C406001068
:10242C00C4060010CC060010CC060010D406001018
:10243C00D4060010DC060010DC060010E4060010C8
:10244C00E4060010EC060010EC060010F406001078
:10245C00F4060010FC060010FC0600100407001027
:10246C00040700100C0700100C07001014070010D4
:10247C00140700101C0700101C0700102407001084
:10248C00240700102C0700102C0700103407001034
:10249C00340700103C0700103C07001044070010E4
:1024AC00440700104C0700104C0700105407001094
:1024BC00540700105C0700105C0700106407001044
:1024CC00640700106C0700106C07001074070010F4
:1024DC00740700107C0700107C07001084070010A4
:1024EC00840700108C0700108C0700109407001054
:1024FC00940700109C0700109C070010A407001004
:10250C00A4070010AC070010AC070010B4070010B3
:10251C00B4070010BC070010BC070010C407001063
:10252C00C4070010CC070010CC070010D407001013
:10253C00D4070010DC070010DC070010E4070010C3
:10254C00E4070010EC070010EC070010F407001073
:10255C00F4070010FC070010FC0700100408001022
:10256C00040800100C0800100C08001014080010CF
:10257C00140800101C0800101C080010240800107F
:10258C00240800102C0800102C080010340800102F
:0C259C003408001000000200FFFFFFFFE9
:0425A800E900000046
:0425AC00C500000066
:0425B0000000000027
:0425B40045130000CB
:04000003000006D91A
:00000001FF
